:020000040800F2
:10000000400A00201D020008310F0008330F0008CD
:10001000370F00083B0F00083F0F000800000000EA
:10002000000000000000000000000000430F000876
:10003000450F000800000000470F0008490F0008A6
:1000400037020008370200083702000837020008AC
:100050003702000837020008D1050008C70400086D
:100060002D05000837020008370200083702000893
:10007000370200083702000837020008370200087C
:10008000370200083702000837020008370200086C
:10009000370200083702000837020008370200085C
:1000A000370200083702000837020008370200084C
:1000B000370200083702000837020008370200083C
:1000C000370200083702000837020008370200082C
:1000D00037020008AD120008370200083702000896
:1000E000370200083702000837020008370200080C
:1000F00037020008370200083702000837020008FC
:1001000037020008370200083702000837020008EB
:1001100037020008370200083702000837020008DB
:1001200037020008370200083702000837020008CB
:1001300000F002F800F062F80AA090E8000C824497
:100140008344AAF10107DA4501D100F057F8AFF274
:10015000090EBAE80F0013F0010F18BFFB1A43F0A5
:100160000103184728920000489200000A444FF00B
:10017000000C10F8013B13F0070408BF10F8014B06
:100180001D1108BF10F8015B641E05D010F8016B4B
:10019000641E01F8016BF9D113F0080F1EBF10F8AF
:1001A000014BAD1C0C1B09D16D1E58BF01F801CBD2
:1001B000FAD505E014F8016B01F8016B6D1EF9D555
:1001C0009142D6D37047000000230024002500266A
:1001D000103A28BF78C1FBD8520728BF30C148BFAA
:1001E0000B607047642906F06787782906F0A087BE
:1001F000002070471FB51FBD10B510BD07F054F8A3
:100200001146FFF7F7FF00F016FA07F072F803B493
:10021000FFF7F2FF03BC00F0EFFF00000948804742
:1002200009480047FEE7FEE7FEE7FEE7FEE7FEE7D8
:10023000FEE7FEE7FEE7FEE704480549054A064BF0
:100240007047000029100008310100084004002018
:10025000400A0020400600204006002010B5002083
:10026000FE49086042E0FD490868C11700EB517182
:10027000C910A0EBC101FA4A11600020F9490860D9
:100280002BE00020F84908601EE0F848F6490968AC
:1002900050F82100F6490860F3480068F049096801
:1002A0000844F44951F82000F3490860012000F0A7
:1002B00077FF0020EE490860FF20EF490860EA4818
:1002C0000068401CE8490860E74800680828DCDB53
:1002D000E4480068401CE3490860E24800680A28D6
:1002E000CFDBDE480068401CDC490860DB48006862
:1002F0006428B8DB10BD10B50020D849086042E082
:10030000D6490868C11700EB5171C910A0EBC101B3
:10031000D34A11600020D34908602BE00020D24965
:1003200008601EE0D548D049096850F82100D0493E
:100330000860CD480068CA4909680844CD4951F8A9
:100340002000CD490860012000F02AFF0020C849A4
:100350000860FF20C8490860C3480068401CC249C3
:100360000860C14800680828DCDBBE480068401C03
:10037000BC490860BB4800680A28CFDBB748006862
:10038000401CB6490860B54800686428B8DB10BD59
:1003900010B50020B14908603EE00020B149086076
:1003A00031E00020B049086024E0B048AE49096857
:1003B00050F82100AE490860AB480068A7490968B9
:1003C0000844AF4951F82000AB490860AD48806946
:1003D00040F04800AB498861012000F0E1FE0020B8
:1003E000A3490860FF20A44908609F480068401C9A
:1003F0009D4908609C4800680828D6DB9948006839
:10040000401C98490860974800680A28C9DB93484F
:100410000068401C91490860904800684828BCDB8F
:1004200010BD9848806940F021009649886196483F
:10043000006840F00200944908600846006840F0F7
:10044000040008609148806840F030008F4988605F
:100450000846806820F0C00088600846806840F444
:10046000407088600846806820F440608860884852
:10047000006840F002008649086085480C3000683A
:1004800040F0020082490C3108608148006840F069
:1004900004007F4908607E480C30006840F004008A
:1004A0007B490C3108607B48006840F080004FF0C9
:1004B000E021C1F800010846D0F8000140F4807046
:1004C000C1F80001704710B54FF47A7000F068FE73
:1004D00071480068401C704908600846006805289B
:1004E00006DB6E48006820F002006C49086005E0F9
:1004F0006A48006840F00200684908606848664938
:10050000096850F821006749C860614814300068E4
:1005100040F002005E49143108606348006840F012
:1005200080004FF0E021C1F8800210BD10B56420BA
:1005300000F036FE00205D4908605D4908605248C1
:10054000006820F0010050490860514814300068EC
:1005500040F004004E49143108605348006840F4EC
:1005600080704FF0E021C1F880024FF47A7000F003
:1005700017FE10BD4348806940F00800414988617A
:100580004648006840F00100444908603F488068E0
:1005900040F001003D4988600846806820F00E0068
:1005A00088603B48006840F00100394908603848DD
:1005B0000C30006840F0010035490C3108603548C6
:1005C000006840F040004FF0E021C1F800017047A2
:1005D00010B54FF47A7000F0E3FD2F480068401E1C
:1005E0002D49086008460068052806DB2B4800688E
:1005F00020F002002949086005E02848006840F022
:1006000002002649086026482349096850F821005D
:100610002449C8601E481430006840F001001C499D
:10062000143108602048006840F040004FF0E0219D
:10063000C1F8800210BD1CB5002400201C490860D0
:100640001A490860144908601A4908601A49086084
:100650001A4908601A4908601A4935E070000020FC
:1006600074000020780000206C0000207C00002036
:100670000C1C0140BC0000200C1801409C00002014
:1006800004010020001002400C1401400000014051
:100690000004014000E100E00C0000200C0C0140CF
:1006A000440000200020014080E200E0080000201B
:1006B0000400002010000020940200209802002076
:1006C0009C020020A00200200860F9490860012077
:1006D000F849086000F028FD4FF4165000F09AFD2C
:1006E00002F0CFFD0020F4490880F5E00020F34936
:1006F000086011E00020F149009009680A2202EB2D
:1007000001101023ED490A68282106F036FCEB4859
:100710000068401CE9490860E84800680E28E9DBE9
:10072000E64800782044C4B20020E449086012E0A2
:100730000020E249009009686218E0490968142322
:1007400003EB011010233C2106F017FCDB48006886
:10075000401CDA490860D94800680828E8DBD74817
:1007600000782044C4B20020D449086012E0002080
:10077000D249009009686218D0490968142303EB34
:1007800001101023502106F0F8FBCC480068401CF3
:10079000CA490860C94800680328E8DBC7480078F0
:1007A0002044C4B2C6A01021CDE90010C349098875
:1007B000282202EB011188B21023C822502106F032
:1007C000A9FB0020BD49086012E00020BB49009051
:1007D00009686218B9490968142303EB0110102352
:1007E000642106F0CAFBB5480068401CB3490860A4
:1007F000B24800680328E8DBB04800782044C4B25F
:10080000B2A01021CDE90010AC490988282202EBE2
:10081000011188B21023C822642106F07BFBAEA030
:1008200010210B46C822CDE900107821142006F0D3
:1008300071FB0020A149086013E000209F4900904F
:10084000096862189D490968C91C0A2303EB011055
:100850001023782106F091FB98480068401C9749C6
:100860000860964800680A28E7DB9448007820442E
:10087000C4B200209149086012E000208F49009026
:10088000096862188D490968142303EB01101023CD
:100890008C2106F072FB89480068401C874908607B
:1008A000864800680828E8DB844800782044C4B201
:1008B0008BA010210B46C822CDE90010A0211420E6
:1008C00006F028FB002489480068401E874908601C
:1008D0004FF47A7000F064FC8448006800287FF4CC
:1008E00005AF8348806940F23D1108438049886123
:1008F0004FF011307F4908607F4908607F48804988
:1009000008604FF011307F4908607F4908607D48DA
:100910000C30006820F080007A490C3108600846ED
:10092000006820F0040008600846006840F00200FB
:100930000860FFF71FFEFFF774FD6D48806940F007
:10094000C0006B4988614FF01130704908607049F0
:1009500008606E480C3000686C490C3108606C48C7
:100960000C30006840F0FF0069490C310860FFF767
:100970000FFD0120514908600AE0002065494F4AF7
:10098000126841F822004D480068401C4B4908603D
:100990004A4800680B28F0DB5F484649096850F870
:1009A000210055490C3108605C485D49096850F8E0
:1009B00021005549C86091E200204049086040E1AB
:1009C00000203B49086057490860574908600F20DC
:1009D0004849C8600846806810F0100F02D0042013
:1009E000504908604348806810F0200F02D005206D
:1009F0004C4908603F48806810F0400F02D0062044
:100A0000484908603B48806810F0800F02D00720FA
:100A100044490860F0203749C8600846806810F0F3
:100A2000020F02D00120404908603248806810F06F
:100A3000040F02D002203C4908602E48806810F064
:100A4000080F02D00320384908603648006804289F
:100A500001D1012000E0002033490968032901D1B8
:100A6000012100E00021084202D001201049086065
:100A70002C480068052801D1012000E000202A4907
:100A80000968032901D1012100E00021084202D0B8
:100A900002200749086023480068062801D1012088
:100AA00000E000202049096803293FD101213EE0F0
:100AB0001400002018000020D80200209C02002012
:100AC000323231313133303430343200323231313C
:100AD00031333034303436003230323200000000EE
:100AE000323032342D30352D3139000000000020F5
:100AF000001002400010014000080140811811114F
:100B000000140140000C014000200140001C014085
:100B100000180140DC0200201C00002044000020DE
:100B20000C000020940200209802002000210842BE
:100B300002D00320EA490860EA480068072801D18A
:100B4000012000E00020E8490968032901D10121C2
:100B500000E00021084202D00420E1490860E14899
:100B60000068042801D1012000E00020DE49096866
:100B7000022901D1012100E00021084202D0052014
:100B8000D7490860D7480068052801D1012000E056
:100B90000020D5490968022901D1012100E0002186
:100BA000084202D00620CE490860CE4800680628D8
:100BB00001D1012000E00020CB490968022901D1C0
:100BC000012100E00021084202D00720C44908604A
:100BD000C4480068072801D1012000E00020C24974
:100BE0000968022901D1012100E00021084202D058
:100BF0000820BB490860BB480068042801D10120D7
:100C000000E00020B8490968012900D100E0002176
:100C1000084202D00920B24908600120B349B04A15
:100C2000126841F822004FF47A7000F0B9FAAC482B
:100C30000168AFA006F000FAAE480068401CAD495C
:100C40000860AC4800681428FFF6BAAE0A20A9492B
:100C500008603EE1A548A749096850F8210001282D
:100C60007BD1A5480068A3490968884200D12BE1DF
:100C7000A2A006F0E1F90120A34908600020A349E1
:100C80000860A348006840F00100A149086003E043
:100C90009D48006800B900E0FAE700BF9DA006F09B
:100CA000CBF99B48006820F0010099490860924800
:100CB00000689049096888425EDA00209849086017
:100CC000934908600846006820F002000860084662
:100CD000006820F004000860FFF7C0FA3EE0002042
:100CE000904908601CE01020894908600A2000F043
:100CF00057FA2020864908600A2000F051FA402067
:100D0000834908600A2000F04BFA8020804908607F
:100D10000A2000F045FA83480068401C81490860B9
:100D200080480068B0F5007FDDDB7D480068401C2E
:100D30007B49086070480068096808447A4951F89E
:100D400020007A4908606B4800686B490968401ABE
:100D500073490968884201D101E0B4E0BFE700BFF0
:100D60006B48006840F00200694908600846006866
:100D700040F0040008605CE00020694908606449B4
:100D800008600846006820F0020008600846006815
:100D900020F004000860FFF7AEFA3DE00020614952
:100DA00008601CE080205A4908600A2000F0F8F929
:100DB0001020574908600A2000F0F2F92020544919
:100DC00008600A2000F0ECF94020514908600A2030
:100DD00000F0E6F953480068401C52490860514849
:100DE0000068B0F5007FDDDB4D480068401C4C49D1
:100DF0000860414800680968401A4B4951F82000D2
:100E00004A4908603C4800683A490968401A444920
:100E10000968884200D100E0C0E700BF3C48006894
:100E200040F002003A4908600846006840F00400BB
:100E3000086000202D492F4A126841F822002D48F1
:100E400000682D4908603248006840F008003049C9
:100E5000086041F2707000F0A3F92D48006820F09E
:100E600008002B49086025A006F0E6F80120264975
:100E700008600020254908602548006840F001000E
:100E80002349086011E02048006800B90EE01F48BF
:100E90000068401C1D4908604FF47A7000F080F92A
:100EA0001A480068062800D100E0ECE700BF19A04E
:100EB00006F0C2F81648006820F0010014490860E6
:100EC00000200749086000BF0A480068401E094921
:100ED0000860084800680128BFF6BCAE6CE5000059
:100EE000140000209402002098020020DC02002060
:100EF00025640A009C02002018000020646F6F72B5
:100F0000206F70656E0A00000800002004000020B9
:100F10000C140140646F6F7220636C6F73650A007C
:100F200010000020A00200201C0000200C0801403E
:100F3000704700BFFEE700BFFEE700BFFEE700BF4F
:100F4000FEE7704770477047704700000CB50020FF
:100F5000019000906B48006840F480306949086057
:100F600000BF6848006800F4003000900198401C01
:100F70000190009818B90198B0F5A06FF1D16148BF
:100F8000006810F4003F02D00120009001E0002032
:100F900000900098012842D15B48006840F01000A2
:100FA000594908600846006820F0030008600846B8
:100FB000006840F0020008605248406851494860AB
:100FC0000846406848600846406840F480604860D1
:100FD0000846406820F47C1048600846406840F4A9
:100FE000E81048600846006840F08070086000BF64
:100FF0004448006810F0007FFAD04248406820F072
:101000000300404948600846406840F002004860DC
:1010100000BF3C48406800F00C000828F9D10CBD26
:1010200010B5FFF793FF10BD10B53648006840F0CB
:101030000100344908600846406834490840314995
:10104000486008460068324908402E490860084652
:10105000006820F4802008600846406820F4FE0004
:1010600048604FF41F008860FFF7DAFF4FF0006020
:101070002849086010BD10B5002100200022214B36
:101080005B6803F00C0121B1042906D0082928D19E
:1010900007E0214B214C236027E01F4B1F4C2360AE
:1010A00023E0184B5B6803F47010164B5B6803F485
:1010B0008032022303EB904022B9194B4343174C73
:1010C00023600DE00F4B5B6813F4003F04D0144B1A
:1010D0004343124C236003E00F4B43430F4C236008
:1010E00003E00D4B0D4C236000BF00BF054B5B6858
:1010F000C3F303130B4CE15C084B1B68CB40074C5C
:10110000236010BD00100240002002400000FFF8E4
:10111000FFFFF6FE08ED00E000127A00A4020020B6
:1011200000093D00A802002010B56FF0040000F097
:1011300053F92D4800682D49B0FBF1F02C49087097
:101140000846007800EB4001C1EBC0104FF6FF717C
:1011500001EAC0002749088010BD0146244A1278E0
:101160004A434FF0E0235A6100229A611A461269FD
:1011700042F001021A6100BF4FF0E022106910F046
:10118000010F02D010F4803FF6D04FF0E022126938
:1011900022F001024FF0E0231A6100229A617047A9
:1011A0000146144A12884A434FF0E0235A61002254
:1011B0009A611A46126942F001021A6100BF4FF0AB
:1011C000E022106910F0010F02D010F4803FF6D039
:1011D0004FF0E022126922F001024FF0E0231A6181
:1011E00000229A6170470000A402002000127A00D9
:1011F000B8020020BA020020014600BF704700BFBD
:10120000494A128812F0400FFAD0C2B2464B1B1D59
:101210001A80704710B586B00446012144F20400DC
:1012200000F01AFF4FF40070ADF8140003208DF8A1
:10123000160018208DF8170005A93C4800F056FC50
:101240004FF48060ADF8140004208DF8170005A954
:10125000364800F04BFC25208DF8000003208DF867
:1012600001008DF8020001208DF80300684600F0AF
:1012700068F801940020ADF80800ADF80A00ADF858
:101280000C00ADF810000C20ADF80E0001A92648A6
:1012900000F08DFF012240F22551234801F01FF894
:1012A0000121214801F00FF806B010BD10B540F241
:1012B00025511D4801F0F8F810B31B4801F074F8EF
:1012C000C4B21B48008810F4004F2BD11848008886
:1012D00010F4804F0CD00A2C03D000201449088051
:1012E00020E01348008840F400401149088019E0CC
:1012F0000D2C06D10E48008840F480400C4908802F
:1013000010E00B480088C0F30D000A490C5408484F
:101310000088401C0649088008460088C72801DD6F
:101320000020088010BD0000003801400008014086
:10133000BC0200200403002031490143314A1160FE
:10134000704770B5002100230F22C4780CB32D4CD8
:10135000246804F4E064C4F5E064210AC1F10403E4
:10136000CA40447804FA03F1847814402143090107
:10137000254C0678A155047804F01F050124AC40E3
:1013800005786D114FF0E02606EB8505C5F80041A4
:1013900009E0047804F01F050124AC401B4D0678D9
:1013A000761145F8264070BD194A0A400243154B94
:1013B0001B1F1A60704739B1124A121D126802438E
:1013C000104B1B1D1A6006E00E4A121D1268824364
:1013D0000C4B1B1D1A607047042808D14FF0E02108
:1013E000096941F004014FF0E022116107E04FF07C
:1013F000E021096921F004014FF0E02211617047FA
:101400000000FA050CED00E000E400E080E100E0FF
:1014100080FFFF1F30B943F2DB014FF0204242F85A
:10142000201005E043F2D2014FF0204242F8201094
:101430006FF07042411C4FF0204343F821201146C9
:101440001A4602EB8002C2F80411704710280AD134
:1014500018214FF020421166402151664FF0FC31B7
:101460009166D16610E01821F84A11604FF04001F2
:101470004FF02042C2F884104FF0FC31F44A116062
:101480004FF02042C2F88C1070471820F1490860D4
:101490004FF000004FF02041C1F8A4004FF0FC30A5
:1014A000ED49086001F10401086001F104010860E0
:1014B0007047D0E901121143C26811430269114318
:1014C0004269114382691143C2691143026A11439F
:1014D000426A1143826A1143C26A1143026B11438B
:1014E0004FF02043026843F822108168082908D190
:1014F0001A46016852F8211041F04001026843F891
:101500002210416B0968426B526841EA0211426B3A
:10151000926841EA0221426B928941EA0241426BA0
:10152000128A41EA0251426B127D41EA0261426B2A
:10153000926911430268521C4FF0204343F8221075
:10154000C16AB1F5804F1AD1816B0968826B52680C
:1015500041EA0211826B926841EA0221826B128A8F
:1015600041EA0251826B127D41EA0261826B92690B
:101570001143026803EB8202C2F8041108E06FF025
:1015800070414FF02043026803EB8202C2F804115D
:10159000704730B5002100220023446844F008045D
:1015A00085682C43C5682C4305692C43456944EA8A
:1015B0004524856944EA4531C4692468C5696D6874
:1015C00044EA0524C5692D8944EA0544C5692D7B93
:1015D00044EA0562046A2468056A6D6844EA0524E1
:1015E000056A2D8944EA0544056A2D7B44EA0563B2
:1015F0000468102C05D14FF020442166A266E366F2
:1016000007E0924C21604FF02044C4F88820934CAE
:10161000236030BD016841F01001426841EA422177
:10162000826841EA42318B4A1160C1680968C26828
:10163000526841EA0221C268128941EA0241C26845
:10164000127B41EA0261844A1160016909680269FA
:10165000526841EA02210269128941EA02410269A3
:10166000127B41EA02617E4A116041690968426960
:10167000526841EA02214269128941EA0241426903
:10168000127B41EA02614FF02042C2F8B01070476D
:10169000002101600221416000218160C16001617F
:1016A00041618161C16101624FF480514162490031
:1016B00081620021C16201630F21426B1160426BA4
:1016C0005160FF21426B91600F21426BD160426BF0
:1016D0001161426B51610021426B91610F21826B5C
:1016E0001160826B5160FF21826B91600F21826BD0
:1016F000D160826B1161826B51610021826B9161BB
:10170000704710210160002141608160C16001616A
:1017100041618161FC21C2691160C2695160C26985
:101720009160C269D160026A1160026A5160026A06
:101730009160026AD1607047002101604160816060
:10174000FC21C2681160C2685160C2689160C268C1
:10175000D160026911600269516002699160026999
:10176000D160426911604269516042699160426989
:10177000D160704751B14FF0204252F8202042F022
:1017800001024FF0204343F8202009E04FF02042AF
:1017900052F82020334B1A404FF0204343F82020CA
:1017A000704799B1102808D14FF02042126E42F0D4
:1017B00004024FF020431A661DE0244A126842F0EA
:1017C00004024FF02043C3F8802014E0102809D110
:1017D0004FF02042126E234BDB1E1A404FF0204385
:1017E0001A6608E0194A12681F4B02EA03024FF01A
:1017F0002043C3F88020704740B11649096841F082
:1018000004014FF02042C2F8A01008E01149096815
:10181000154A01EA02014FF02042C2F8A0107047B9
:1018200099B1102808D14FF02042126E42F04002C8
:101830004FF020431A662DE0044A126842F040023D
:101840004FF02043C3F8802024E00FE0800000A088
:10185000880000A0A00000A0A80000A08C0000A0AC
:10186000AC0000A0FEFF0F00FBFF0F00102808D106
:101870004FF02042126E684B1A404FF020431A6618
:1018800008E0664A1268644B02EA03024FF0204304
:10189000C3F88020704701460020102903D14FF083
:1018A0002042506F01E05E4A1068704710B5F2B1F7
:1018B000102807D14FF020435B6E0B434FF02044BC
:1018C000636632E0B0F5807F08D1564B1B6843EA6F
:1018D00001034FF02044C4F8843026E0524B1B68CB
:1018E00043EA01034FF02044C4F8A4301DE010285F
:1018F00007D14FF020435B6E8B434FF0204463666B
:1019000013E0B0F5807F08D1464B1B6823EA010342
:101910004FF02044C4F8843007E0434B1B6823EAAF
:1019200001034FF02044C4F8A43010BD10B50246A6
:1019300000200023102A03D14FF02044636E07E0FB
:10194000B2F5807F02D1374C236801E0364C236822
:101950000B4201D0012000E0002010BD102807D16B
:101960004FF02042526E8A434FF020435A6613E0F4
:10197000B0F5807F08D12B4A126822EA01024FF0AD
:101980002043C3F8842007E0274A126822EA0102B4
:101990004FF02043C3F8A420704770B502460020E2
:1019A000002300240025102A03D14FF02046736E37
:1019B00007E0B2F5807F02D11A4E336801E01A4E7B
:1019C000336803EA010403EAD10514B10DB1012023
:1019D00000E0002070BD102808D14FF02042526E68
:1019E00022EAD1024FF020435A6613E0B0F5807F1F
:1019F00008D10C4A126822EAD1024FF02043C3F802
:101A0000842007E0084A126822EAD1024FF02043FE
:101A1000C3F8A42070470000BFFF0F00800000A0A3
:101A2000940000A0840000A0A40000A010B504460B
:101A3000CA48844208D10121042000F027FB00217C
:101A4000042000F023FB46E0C548844208D1012170
:101A5000082000F01BFB0021082000F017FB3AE0F3
:101A6000C048844208D10121102000F00FFB002162
:101A7000102000F00BFB2EE0BB48844208D101216E
:101A8000202000F003FB0021202000F0FFFA22E0DC
:101A9000B648844208D10121402000F0F7FA002125
:101AA000402000F0F3FA16E0B148844208D1012149
:101AB000802000F0EBFA0021802000F0E7FA0AE035
:101AC000AC48844207D10121801500F0DFFA0021E3
:101AD000A01500F0DBFA10BD10B50121084600F09A
:101AE000D5FA0021012000F0D1FA10BD2DE9F04116
:101AF000024600250026002000230024002791F83C
:101B000003C00CF00F0591F803C01CF0100F03D0B8
:101B100091F802C04CEA050591F800C0BCF1000F35
:101B200031D0146800202BE04FF0010C0CFA00F3C8
:101B3000B1F800C00CEA03069E4220D183004FF0AA
:101B40000F0C0CFA03F7BC4305FA03FC4CEA04043F
:101B500091F803C0BCF1280F06D14FF0010C0CFA2C
:101B600000FCC2F814C00AE091F803C0BCF1480FB1
:101B700005D14FF0010C0CFA00FCC2F810C0401C5B
:101B80000828D1D31460B1F800C0BCF1FF0F34DDD8
:101B9000546800202EE000F1080C4FF0010808FA0C
:101BA0000CF3B1F800C00CEA03069E4221D1830079
:101BB0004FF00F0C0CFA03F7BC4305FA03FC4CEA98
:101BC000040491F803C0BCF1280F05D100F1080C02
:101BD00008FA0CF8C2F8148091F803C0BCF1480F61
:101BE00007D100F1080C4FF0010808FA0CF8C2F810
:101BF0001080401C0828CED35460BDE8F0814FF619
:101C0000FF710180022181700421C170704702467A
:101C1000002093680B4201D0012000E000207047B3
:101C20000146886880B2704702460020D3680B42A4
:101C300001D0012000E0002070470146C86880B252
:101C4000704701617047416170470AB1016100E06E
:101C500041617047C16070474FF480320A4382612E
:101C60008161826182698269704702460020424B2D
:101C700018684FF68073184040EA021008433E4B44
:101C8000186070473D49C8617047F0B50A460023A7
:101C900000240021002500F00046B6F1004F02D1DB
:101CA000354EF16901E0344E7168C0F3034583B2EB
:101CB00000F44016B6F5401F08D121F070612E4E99
:101CC000766826F070662C4F7E6012E000F4801675
:101CD000B6F5801F06D1032606FA05F4A14341F0AC
:101CE000706106E0460D360103FA06F6B14341F095
:101CF000706122B1460D360103FA06F6314300F059
:101D00000046B6F1004F02D11B4EF16101E01A4EC0
:101D10007160F0BD30B500228B071C0F0F2303FA52
:101D200004F2154B08338C1053F824309343124CB3
:101D300008348D1044F8253023468C1053F8243095
:101D40008C07240F00FA04F423430B4C08348D1045
:101D500044F8253030BD0A4908607047000801404A
:101D6000000C014000100140001401400018014027
:101D7000001C014000200140000001400000204202
:101D8000DC002042DD48006840F00100DB490860CB
:101D900008464068DA490840D84948600846006863
:101DA000D8490840D54908600846006820F48020DA
:101DB00008600846406820F4FE0048604FF41F00A9
:101DC00088607047CD49096821F48031CB4A1160A1
:101DD0001146096821F480211160B0F5803F03D0DD
:101DE000B0F5802F0ED106E0C449096841F4803176
:101DF000C24A116007E0C149096841F4A021BF4A05
:101E0000116000E000BF00BF704710B5014600221E
:101E1000002300204A11012A02D1B84C236806E0B1
:101E2000022A02D1B54C236A01E0B44C636A01F086
:101E30001F02012494401C4201D0012000E0002038
:101E400010BD38B5002000900024002500BF3120CF
:101E5000FFF7DBFF05460098401C00900098B0F5A6
:101E6000A06F01D0002DF2D03120FFF7CEFF08B1D6
:101E7000012400E00024204638BD014600209F4A8E
:101E8000106820F0F80040EAC100106070479E49D9
:101E90000860704702460020984B586820F47C1078
:101EA00042EA01031843954B58607047964908660B
:101EB000704701460020914A506820F00300084313
:101EC000506070478D48406800F00C007047014634
:101ED00000208A4A506820F0F000084350607047A4
:101EE00001460020854A506820F4E06008435060B5
:101EF000704701460020814A506820F4605040EA53
:101F0000C1005060704729B17C4A527A02437B4B32
:101F10005A7204E0794A527A8243784B5A72704777
:101F20007A490860704701460020744A506820F4DE
:101F300040400843506070470021754A11706F4A55
:101F400082F82010012802D0042808D103E00121E2
:101F50006F4A117004E005216D4A117000E000BF66
:101F600000BF70476B49086070476449096A0143C4
:101F7000624A11627047674944390860704730B55A
:101F800000210022002400235C4D6D6805F00C0147
:101F900021B1042905D0082923D105E05E4D056053
:101FA00022E05D4D05601FE0544D6D6805F4701230
:101FB000524D6D6805F48034022505EB92421CB940
:101FC000564D554305600BE04C4D6D6815F4003FD0
:101FD00003D0524D5543056002E04F4D5543056017
:101FE00002E04D4D056000BF00BF444D6D6805F037
:101FF000F00109094A4D6B5C0568DD4045603F4DC5
:102000006D6805F4E061090A454D6B5C4568DD408B
:1020100085603A4D6D6805F46051C90A404D6B5CAE
:102020004568DD40C560354D6D6805F44041890B5C
:102030003C4D6B5CC568B5FBF3F5056130BD29B15E
:102040002E4A526902432D4B5A6104E02B4A5269D1
:1020500082432A4B5A61704729B1284A9269024348
:10206000264B9A6104E0254A92698243234B9A6188
:10207000704729B1214AD2690243204BDA6104E05A
:102080001E4AD26982431D4BDA61704729B11B4A4F
:10209000D2680243194BDA6004E0184AD2688243DE
:1020A000164BDA60704729B1144A12690243134B88
:1020B0001A6104E0114A12698243104B1A61704799
:1020C00014494039086070470F49C86470470B498C
:1020D000C87170470948406A40F0807007494862FB
:1020E000704701460020054A92680A4201D001204B
:1020F00000E00020704701498872704700100240DC
:102100000000FFF8FFFFF6FE00004242D800424206
:10211000201002408004424200127A0000093D0073
:10212000C4020020D402002010B50446FB488442BB
:1021300009D101218803FFF7A9FF00214FF4804056
:10214000FFF7A4FF32E0F648844209D10121480498
:10215000FFF7A9FF00214FF40030FFF7A4FF25E0AF
:10216000F048844209D101218804FFF79CFF002137
:102170004FF48020FFF797FF18E0EB48844209D125
:102180000121C804FFF78FFF00214FF40020FFF763
:102190008AFF0BE0E548844208D101210805FFF7DA
:1021A00082FF00214FF48010FFF77DFF10BD2DE965
:1021B000F04786B005460E460024A24600BFA14661
:1021C0000027B08900B100BF2F462C8A4CF6FF7063
:1021D0000440F08804432C82AC894EF6F31004408E
:1021E000B08831890843718908430443AC81AC8AC3
:1021F0004FF6FF400440B0890443AC8201A8FFF7CA
:10220000BEFEC648874202D1DDF810A001E0DDF82D
:102210000CA0A88910F4004F08D00AEBCA0000EB0C
:102220000A1031684900B0FBF1F807E00AEBCA0078
:1022300000EB0A1031688900B0FBF1F86420B8FBAC
:10224000F0F004012009642101FB1089A88910F431
:10225000004F08D0322000EBC900B0FBF1F000F0D5
:102260000700044308E0322000EB09106421B0FBB2
:10227000F1F000F00F0004432C8106B0BDE8F087B8
:102280004FF41651016000218180C18001810C2131
:10229000418100218181704710B502460020108ADB
:1022A0004FF2FF0318400B884C8823438C8823434C
:1022B000CC8823431843108210BD00210180418047
:1022C0008180C180704721B1828942F400528281AD
:1022D00004E082894DF6FF731A4082817047F0B5A1
:1022E00003460024002600250020A1F510676A3F60
:1022F00000D100BF1846C1F3421401F01F060127A8
:1023000007FA06F5012C01D10C3004E0022C01D1B2
:10231000103000E014301AB107682F43076002E064
:102320000768AF430760F0BD1AB1838A0B4383820D
:1023300002E0838A8B4383827047028A4FF6F073F0
:102340001A400282028A0A430282704782894FF24F
:10235000FF731A40828182890A438281704721B1CA
:10236000828942F00202828104E082894FF6FD7385
:102370001A4082817047028A4FF6DF731A40028248
:10238000028A0A430282704721B1028A42F48042E3
:10239000028204E0028A4BF6FF731A400282704701
:1023A000C1F308028280704701468888C0F30800A4
:1023B0007047818941F0010181817047028BD2B25F
:1023C0000283028B42EA012202837047028B02F4ED
:1023D0007F420283028B0A430283704721B1828AC3
:1023E00042F02002828204E0828A4FF6DF731A40B4
:1023F0008282704721B1828A42F01002828204E018
:10240000828A4FF6EF731A408282704721B1828A26
:1024100042F00802828204E0828A4FF6F7731A4083
:102420008282704721B1828942F40042828103E0B6
:102430008289C2F30E028281704721B1828A42F4FE
:102440000062828204E0828A4FF2FF731A40828225
:102450007047828A4FF6FB731A408282828A0A434F
:102460008282704721B1828A42F00202828204E0B5
:10247000828A4FF6FD731A4082827047024600201E
:10248000B1F5007F00D100BF13880B4201D00120BD
:1024900000E00020704701F40072B2F5007F00D127
:1024A00000BFCA430280704770B502460024002373
:1024B00000250020A1F510666A3E00D100BFC1F3DF
:1024C000421501F01F03012606FA03F3012D02D184
:1024D0009689334006E0022D02D1168A334001E08E
:1024E000968A33400C12012606FA04F4168834400A
:1024F00013B10CB1012000E0002070BD10B5002226
:102500000023A1F510646A3C00D100BF0A12012427
:102510009440A3B2DC43048010BD000000380140A9
:102520000044004000480040004C00400050004083
:10253000F74908807047F649891C0880704708B53C
:10254000F348801C00880090BDF8000008BDF04AE8
:102550001080921C1180704710B504462046FFF78A
:10256000E7FF0520FEF7F9FDFFF7E9FF10BDE94899
:102570000089E74908807047E549891C0880704751
:1025800030B5014601F01F04C1F34513CA0AE50244
:1025900005EB43151544A8B230BD00BF0100A0F102
:1025A0000102D0B2FAD1704710B503460C46D948A3
:1025B0008088A0F51341413905D0D6488088A0F520
:1025C000A641103914D1D3494889FFF7B1FF181239
:1025D000FFF7B1FFD8B2FFF7AEFFCE498889FFF70A
:1025E000A7FF2012FFF7A7FFE0B2FFF7A4FFABE0C1
:1025F000C8488088A0F5D04104391DD1C5488079EC
:10260000012804D1C3480088401EC01A83B2C149C2
:102610004889FFF78DFF1812FFF78DFFD8B2FFF73B
:102620008AFFBC498889FFF783FF2012FFF783FFE9
:10263000E0B2FFF780FF87E0B6488088A0F5C85178
:10264000633947D1B3488079A8B9B2480088401EA1
:10265000C01A83B2AF494889FFF76AFF0020FFF72D
:102660006AFF0020FFF767FF1812FFF764FFD8B278
:10267000FFF761FF16E0A7494889FFF759FF1812D5
:10268000FFF759FFD8B2FFF756FFA2490988491E44
:10269000C1F30F20FFF74FFF9E490978491EC8B2CA
:1026A000FFF749FF9B498889FFF742FF2012FFF798
:1026B00042FFE0B2FFF73FFF96494988491EC1F348
:1026C0000F20FFF738FF93498978491EC8B2FFF7FA
:1026D00032FF39E08F488088A0F5AA41103920D117
:1026E0008C494889FFF724FF1812FFF724FF894916
:1026F0004989491C88B2FFF71BFFD8B2FFF71BFFBF
:1027000084498889FFF714FF2012FFF714FF8149DD
:102710008989491C88B2FFF70BFFE0B2FFF70BFF76
:1027200012E07C488079012804D17A480088401E54
:10273000C01A83B2774948891946FFF708FF7549DF
:1027400088892146FFF703FF10BD2DE9F0410546BA
:102750000E4600240027A0466E480088A84203DDEC
:102760006C484088B04202DC0020BDE8F081314670
:102770002846FFF719FF67488088A0F513414139C3
:1027800011D064488088A0F5D04104390BD061484D
:102790008088A0F5A641103905D05E488088A0F554
:1027A000C851633903D12E20FFF7C2FE0DE059480E
:1027B0008088A0F5AA41103904D14FF43850FFF7B2
:1027C000B7FE02E02220FFF7B3FE52488088A0F552
:1027D0001341203902D10220FFF7DFFEFFF7AFFEE1
:1027E00004464C488088A0F5C851633901D1204681
:1027F000BBE70220FFF7D1FEFFF7A1FE04464548E4
:102800008088A0F5134141390BD042488088A0F55B
:10281000A641103905D03F488088A0F5AA4110395B
:102820000AD10220FFF7B9FEFFF789FE8046E7B222
:102830004FF6FF7000EA072736488088A0F513415D
:10284000253917D033488088A0F58A41353911D011
:1028500030488088A0F58A4131390BD02D488088D6
:10286000A0F53541053905D02A488088A0F54541B5
:10287000053901D1204678E726488088A0F5134124
:1028800041390BD023488088A0F5A641103905D0E6
:1028900020488088A0F5AA41103907D1E012C00273
:1028A000B91240EA411040EAE8205EE72046FFF70F
:1028B00067FE5AE700B517488088A0F513414139F3
:1028C00011D014488088A0F5D04104390BD01148AC
:1028D0008088A0F5A641103905D00E488088A0F563
:1028E000C851633903D12920FFF722FE0FE00948C0
:1028F0008088A0F5AA41103904D14FF42450FFF785
:1029000017FE04E040F273110720FFF720FE00BD20
:10291000FE07006CCC03002000B5FD488088A0F5C0
:102920001341413911D0FA488088A0F5D0410439CB
:102930000BD0F7488088A0F5A641103905D0F4489F
:102940008088A0F5C851633903D12820FFF7F0FD36
:102950000EE0EF488088A0F5AA41103904D14FF469
:102960002050FFF7E5FD03E000210720FFF7EFFD12
:1029700000BDF0B5054600240027E5488079012810
:102980000BD1E3488088A0F5D041043905D0E04858
:102990008088A0F5C851633908D1DD488079F0B945
:1029A000DB488088A0F5C851633918D1082D15D2AD
:1029B000DFE805F00406080A0C0E101206250DE0EB
:1029C00007250BE0042509E0052507E0012505E0C2
:1029D000002503E0032501E0022500BF00BFCC482D
:1029E0008088A0F51341413917D0C9488088A0F5E7
:1029F000D041043911D0C6488088A0F5A6411039CD
:102A00000BD0C3488088A0F5AA41103905D0C04832
:102A10008088A0F5C85163397ED1082D1CD2DFE82B
:102A200005F00406090C0F12151800BF14E044F05D
:102A3000800411E044F040040EE044F0C0040BE0D8
:102A400044F0200408E044F0600405E044F0A004F1
:102A500002E044F0E00400BF00BFAD488088A0F56C
:102A6000AA41103902D14FF4585700E03627A84840
:102A70008088A0F5A64110390DD0A5488088A0F522
:102A8000AA41103907D0A2488088A0F5C8516339FF
:102A900001D044F008049E488088A0F5D041043954
:102AA00001D144F0020421463846FFF750FD984812
:102AB0008088A0F5C85163391DD014F0200F0DD0C7
:102AC0009348008892494988884214DA90480688D9
:102AD00040888F490880084646800CE08C48008872
:102AE0008B494988884206DD89480688408888499C
:102AF00008800846468086488088A0F5AA4110399B
:102B000054D183494889FFF713FD0020FFF713FDD7
:102B10007F494989491C00E077E088B2FFF708FD4A
:102B20000020FFF708FD7A494989891C88B2FFF720
:102B3000FFFC77490988491EC1F30F20FFF7FBFC12
:102B400073494989C91C88B2FFF7F2FC70490978BA
:102B5000491EC8B2FFF7EFFC6D498889FFF7E8FC12
:102B60000020FFF7E8FC6A498989491C88B2FFF711
:102B7000DFFC0020FFF7DFFC65498989891C88B2EA
:102B8000FFF7D6FC62494988491EC1F30F20FFF7C1
:102B9000D2FC5F498989C91C88B2FFF7C9FC5C492E
:102BA0008978491EC8B2FFF7C6FC55E058494889E4
:102BB000FFF7BEFC0020FFF7BEFC0020FFF7BBFCC8
:102BC00053490988491EC1F30F20FFF7B4FC50494F
:102BD0000978491EC8B2FFF7AEFC4D498889FFF756
:102BE000A7FC0020FFF7A7FC0020FFF7A4FC484942
:102BF0004988491EC1F30F20FFF79DFC444989789D
:102C0000491EC8B2FFF797FC26E0082D1CD2DFE86A
:102C100005F004070A0D0F12151844F0300413E0F4
:102C200044F0100410E044F020040DE000BF0BE07D
:102C300044F0380408E044F0280405E044F01804A7
:102C400002E044F0080400BF00BF032744F48054AE
:102C500021463846FFF77BFCF0BD30B504460D46F3
:102C600029462046FFF7A0FCFFF781FC2948008891
:102C70002949088030BD30B503460C461546244826
:102C80008088A0F51341413905D021488088A0F5FE
:102C9000A641103914D11E494889FFF749FC181282
:102CA000FFF749FCD8B2FFF746FC19498889FFF7BE
:102CB0003FFC2012FFF73FFCE0B2FFF73CFC93E043
:102CC00013488088A0F5AA41103927D110494889B6
:102CD000FFF72EFC1812FFF72EFC0D494989491CFD
:102CE00088B2FFF725FCD8B2FFF725FC0849888990
:102CF000FFF71EFC2012FFF71EFC05498989491CBD
:102D000088B2FFF715FCE0B2FFF715FC6CE000009D
:102D1000CC030020D80200200008006CFC4880880A
:102D2000A0F5C851633928D1F948807920B9F8480D
:102D30000088401EC01A83B2F5494889FFF7F8FBA6
:102D40001812FFF7F8FBD8B2FFF7F5FB1812FFF7E0
:102D5000F2FBD8B2FFF7EFFBED498889FFF7E8FBFC
:102D60002012FFF7E8FBE0B2FFF7E5FB2012FFF7C8
:102D7000E2FBE0B2FFF7DFFB36E0E5488088A0F534
:102D8000D04104391DD1E2488079012804D1E048BE
:102D90000088401EC01A83B2DD494889FFF7C8FB8E
:102DA0001812FFF7C8FBD8B2FFF7C5FBD8498889CE
:102DB000FFF7BEFB2012FFF7BEFBE0B2FFF7BBFB45
:102DC00012E0D3488079012804D1D1480088401E00
:102DD000C01A83B2CE4948891946FFF7B8FBCC49DF
:102DE00088892146FFF7B3FBC9480089C949088093
:102DF000881C058030BD2DE9F0470446BE20FFF752
:102E000097FB0520FFF797FB204604F0AAFA074638
:102E10004FF06632C04B04F0B7FA054604F074FA7E
:102E20001FFA80F94846FFF786FB0120FFF783FB76
:102E3000FF20FFF780FB0020FFF77DFB0020FFF75E
:102E40007AFBBDE8F08710B50446002C66D1B04986
:102E50008871F02008804FF4A07048800846808870
:102E6000A0F5134141390BD0A9488088A0F5D04185
:102E7000043905D0A6488088A0F5A64110391AD19A
:102E80002C20A34908812A2048812B2088810846CC
:102E90008088A0F5D041043905D09D488088A0F5F0
:102EA000A641103906D14FF4A070994908804FF41B
:102EB000F0704880A1E096488088A0F5AA411039BA
:102EC00010D14FF43050924908814FF42850488176
:102ED0004FF42C5088814FF4F07008804FF4487004
:102EE00048808AE08A488088A0F5C85163390DD1AE
:102EF0002C20874908812B2048812A2088814FF483
:102F0000F07008804FF44870488076E022208049B5
:102F1000088120204881212088816EE001207C49A1
:102F200088714FF4A0700880F0204880084680889F
:102F3000A0F51341413905D075488088A0F5A64118
:102F4000103907D12C20724908812A2048812B2072
:102F500088813FE06E488088A0F5D041043907D1D0
:102F60002C206B4908812B2048812A20888131E060
:102F700067488088A0F5AA41103910D14FF430502D
:102F8000634908814FF4285048814FF42C508881C0
:102F90004FF4487008804FF4F07048801AE05C48A5
:102FA0008088A0F5C85163390DD12C20584908817B
:102FB0002A2048812B2088814FF4487008804FF4E4
:102FC000F070488006E02220514908812120488184
:102FD000202088814E488088A0F5D041043905D052
:102FE0004B488088A0F5A641103906D14FF4F07007
:102FF000474908804FF4A07048800020FFF7B9FCD3
:1030000010BD2DE9F04F86B004460D469046994616
:1030100004EB0800401E86B205EB0900401E87B293
:103020003B488088A0F51341413915D03848808845
:10303000A0F5A64110390FD035488088A0F5D041C1
:10304000043909D032488079012826D13048808857
:10305000A0F5C851633920D12D494889FFF768FA96
:103060002012FFF768FAE0B2FFF765FA3012FFF7B7
:1030700062FAF0B2FFF75FFA25498889FFF758FA3C
:103080002812FFF758FAE8B2FFF755FA3812FFF79F
:1030900052FAF8B2FFF74FFABEE01D488088A0F55B
:1030A000C85163393AD11A480088A0EB0800001BC8
:1030B00084B205EB0900401E1FFA80F914494889C3
:1030C000FFF736FA2012FFF736FAE0B2FFF733FACD
:1030D00004EB0801491EC1F30F20FFF72CFA04EBA3
:1030E0000801491EC8B2FFF726FA09498889FFF787
:1030F0001FFA2812FFF71FFAE8B2FFF71CFA4FEA8F
:103100002920FFF718FA09F0FF00FFF714FA83E00F
:10311000CC030020FE07006C66660440FE488088F1
:10312000A0F5AA41103944D1FB494889FFF700FABC
:103130002012FFF700FAF8494989491C88B2FFF7C5
:10314000F7F9E0B2FFF7F7F9F3494989891C88B22A
:10315000FFF7EEF93012FFF7EEF9EF494989C91C84
:1031600088B2FFF7E5F9F0B2FFF7E5F9EA49888997
:10317000FFF7DEF92812FFF7DEF9E7498989491CD4
:1031800088B2FFF7D5F9E8B2FFF7D5F9E2498989A6
:10319000891C88B2FFF7CCF93812FFF7CCF9DE4969
:1031A0008989C91C88B2FFF7C3F9F8B2FFF7C3F9E0
:1031B00032E0D948807901280ED1AA46BB46D648CC
:1031C0000088801B401E80B20190D3480088001BFD
:1031D000401E80B2009003E0A246B34601950097DE
:1031E00050200590512004905220039053200290CB
:1031F00051460598FFF7ABF959460498FFF7A7F930
:1032000001990398FFF7A3F900990298FFF79FF936
:1032100029462046FFF7C8F906B0BDE8F08F70B523
:1032200004460026BC48058840884543BA48808843
:10323000A0F5D041043916D1B7488079012812D1C0
:103240000020B54988712A2048812B2088810021DF
:103250000846FFF7A9F90120AF4988712B20488162
:103260002A20888103E000210846FFF79DF9FFF737
:103270007EF9002602E0A9480480761CAE42FAD30B
:1032800070BD00B59FB001210802FEF7D8FE0121F4
:103290004FF4B470FEF7E0FE0120ADF87800102086
:1032A0008DF87B0003208DF87A001EA99C48FEF75C
:1032B0001DFC4CF23370ADF8780018208DF87B00BF
:1032C00003208DF87A001EA99648FEF70FFC4FF6F2
:1032D0008070ADF8780018208DF87B0003208DF801
:1032E0007A001EA99048FEF701FC41F20100ADF8FA
:1032F000780018208DF87B0003208DF87A001EA935
:103300008A48FEF7F3FB01200890002009900F2067
:103310000A9000200B900C900D900E90019002905E
:10332000032003900020049005900690079006204B
:103330000F900020109011901020129000201390F8
:1033400015901490169017904FF48050189000200C
:1033500019904FF480401A9000201B9008A81C90F0
:1033600001A81D900FA8FEF7A4F801210620FEF782
:1033700001FA3220FDF714FF0020FFF7EDF866494F
:10338000888008468088FF280ADB08468088A0F5E8
:103390007F41FF3904D060488088B0F5134F7CD15D
:1033A000D320FFF7C5F8FFF7CAF85B498880FFF71D
:1033B000C6F859498880FFF7C2F8574988800846FF
:1033C00080884FF6FF7101EA002053498880FFF79B
:1033D000B6F85149898808434F4988800846808853
:1033E000A0F51341413958D0BF20FFF7A1F8FFF7EE
:1033F000A6F849498880FFF7A2F847498880FFF777
:103400009EF845498880FFF79AF843498880084626
:1034100080884FF6FF7101EA00203F498880FFF75E
:103420008EF83D49898808433B4988800846808852
:10343000A0F5D041043930D0D420FFF779F8FFF758
:103440007EF835498880FFF77AF833498880FFF79E
:1034500076F831498880084680884FF6FF7101EA86
:1034600000202D498880FFF76AF82B498988084396
:103470002949888008468088A0F5A641103963D084
:103480004FF45A40FFF754F8FFF759F82249888063
:103490004FF45B40FFF74CF800E055E0FFF74FF8C2
:1034A0001D498880084680884FF6FF7101EA002098
:1034B000194988804FF45C40FFF73AF8FFF73FF86E
:1034C0001549898808431449888008468088B0F5E2
:1034D000004F02D145F2105088800F488088A0F537
:1034E000AA41103930D0A120FFF722F8FFF727F8C2
:1034F00009498880FFF723F80749888008468088B3
:103500004FF6FF7101EA002003498880FFF717F8A2
:103510000149898808430BE0CC0300200008006CB7
:10352000000C01400014014000180140002001403F
:10353000FE49888008468088A0F5AE41613903D1F4
:1035400041F66310F9498880F8488188F8A003F0B3
:1035500073FDF6488088A0F5134141397ED1CF2014
:10356000FEF7E6FF0020FEF7E6FFC120FEF7E3FFCF
:103570003020FEF7E0FFED20FEF7DAFF6420FEF7D3
:10358000DAFF0320FEF7D7FF1220FEF7D4FF8120D9
:10359000FEF7D1FFE820FEF7CBFF8520FEF7CBFF3B
:1035A0001020FEF7C8FF7A20FEF7C5FFCB20FEF7FC
:1035B000BFFF3920FEF7BFFF2C20FEF7BCFF002025
:1035C000FEF7B9FF3420FEF7B6FF0220FEF7B3FF87
:1035D000F720FEF7ADFF2020FEF7ADFFEA20FEF753
:1035E000A7FF0020FEF7A7FF0020FEF7A4FFC020E2
:1035F000FEF79EFF1B20FEF79EFFC120FEF798FFFF
:103600000120FEF798FFC520FEF792FF3020FEF75D
:1036100092FF3020FEF78FFFC720FEF789FFB7200B
:10362000FEF789FF3620FEF783FF4820FEF783FF71
:103630003A20FEF77DFF5520FEF77DFFB120FEF713
:1036400077FF0020FEF777FF1A20FEF774FFB62001
:10365000FEF76EFF0A20FEF76EFF00E097E0A22063
:10366000FEF769FFF220FEF763FF0020FEF763FF1D
:103670002620FEF75DFF0120FEF75DFFE020FEF74C
:1036800057FF0F20FEF757FF2A20FEF754FF282090
:10369000FEF751FF0820FEF74EFF0E20FEF74BFF0E
:1036A0000820FEF748FF5420FEF745FFA920FEF74B
:1036B00042FF4320FEF73FFF0A20FEF73CFF0F20AA
:1036C000FEF739FF0020FEF736FF0020FEF733FF3C
:1036D0000020FEF730FF0020FEF72DFFE120FEF76F
:1036E00027FF0020FEF727FF1520FEF724FF1720F5
:1036F000FEF721FF0720FEF71EFF1120FEF71BFF3C
:103700000620FEF718FF2B20FEF715FF5620FEF7C8
:1037100012FF3C20FEF70FFF0520FEF70CFF1020E4
:10372000FEF709FF0F20FEF706FF3F20FEF703FF1D
:103730003F20FEF700FF0F20FEF7FDFE2B20FEF7D7
:10374000F7FE0020FEF7F7FE0020FEF7F4FE012052
:10375000FEF7F1FE3F20FEF7EEFE2A20FEF7E8FE20
:103760000020FEF7E8FE0020FEF7E5FE0020FEF751
:10377000E2FEEF20FEF7DFFE1120FEF7D9FE7820F3
:10378000FDF70EFD2920FEF7D3FE03F01EB96748B2
:103790008088A0F5D04104397ED11120FEF7C8FE03
:1037A0001420FDF7FDFCD020FEF7C2FE0720FEF737
:1037B000C2FE4220FEF7BFFE1D20FEF7BCFED12058
:1037C000FEF7B6FE0020FEF7B6FE1A20FEF7B3FEA7
:1037D0000920FEF7B0FED220FEF7AAFE0120FEF778
:1037E000AAFE2220FEF7A7FEC020FEF7A1FE1020B1
:1037F000FEF7A1FE3B20FEF79EFE0020FEF79BFE9B
:103800000220FEF798FE1120FEF795FEC520FEF778
:103810008FFE0320FEF78FFEC820FEF789FE0020F2
:10382000FEF789FE2520FEF786FE2120FEF783FEA7
:103830000520FEF780FE0020FEF77DFE0A20FEF741
:103840007AFE6520FEF777FE2520FEF774FE7720CE
:10385000FEF771FE5020FEF76EFE0F20FEF76BFEA6
:103860000020FEF768FEF820FEF762FE0120FEF75A
:1038700062FEFE20FEF75CFE0020FEF75CFE0220EA
:10388000FEF759FE2020FEF753FE3620FEF750FECD
:103890000820FEF750FE00E02AE03A20FEF748FE3E
:1038A0005520FEF748FE2B20FEF742FE0020FEF7D3
:1038B00042FE0020FEF73FFE0120FEF73CFE3F20C7
:1038C000FEF739FE2A20FEF733FE0020FEF733FE16
:1038D0000020FEF730FE0120FEF72DFEDF20FEF770
:1038E0002AFE7820FDF75CFC2920FEF721FE4CE73C
:1038F0000E488088A0F5A641103940F08487ED205D
:10390000FEF716FE0120FEF716FEFE20FEF713FE60
:10391000EE20FEF70DFEDE20FEF70DFE2120FEF765
:103920000AFEF120FEF704FE012009E0CC0300208E
:10393000204C43442049443A25780D0A00000000F9
:10394000FEF7F9FDDF20FEF7F3FD1020FEF7F3FD93
:10395000C420FEF7EDFD8F20FEF7EDFDC620FEF73B
:10396000E7FD0020FEF7E7FDE220FEF7E4FDE220A0
:10397000FEF7E1FDE220FEF7DEFDBF20FEF7D8FDF9
:10398000AA20FEF7D8FDB020FEF7D2FD0D20FEF7ED
:10399000D2FD0020FEF7CFFD0D20FEF7CCFD00206C
:1039A000FEF7C9FD1120FEF7C6FD0020FEF7C3FD9E
:1039B0001920FEF7C0FD0020FEF7BDFD2120FEF717
:1039C000BAFD0020FEF7B7FD2D20FEF7B4FD002064
:1039D000FEF7B1FD3D20FEF7AEFD0020FEF7ABFD8A
:1039E0005D20FEF7A8FD0020FEF7A5FD5D20FEF797
:1039F000A2FD0020FEF79FFDB120FEF799FD80207B
:103A0000FEF799FD0020FEF796FD8B20FEF793FD53
:103A10000020FEF790FD9620FEF78DFD0020FEF7BA
:103A20008AFDB220FEF784FD0020FEF784FD002011
:103A3000FEF781FD0220FEF77EFD0020FEF77BFDF4
:103A40000320FEF778FD0020FEF775FDB320FEF79A
:103A50006FFD0020FEF76FFD0020FEF76CFD0020DB
:103A6000FEF769FD0020FEF766FD0020FEF763FD0E
:103A70000020FEF760FD0020FEF75DFD0020FEF750
:103A80005AFD0020FEF757FD0020FEF754FD0020F0
:103A9000FEF751FD0020FEF74EFD0020FEF74BFD26
:103AA0000020FEF748FD0020FEF745FD0020FEF750
:103AB00042FD0020FEF73FFD0020FEF73CFD002008
:103AC000FEF739FD0020FEF736FD0020FEF733FD3E
:103AD0000020FEF730FD0020FEF72DFD0020FEF750
:103AE0002AFDB420FEF724FD8B20FEF724FD0020E4
:103AF000FEF721FD9620FEF71EFD0020FEF71BFDC0
:103B0000A120FEF718FD0020FEF715FDB520FEF7F9
:103B10000FFD0220FEF70FFD0020FEF70CFD032035
:103B2000FEF709FD0020FEF706FD0420FEF703FD69
:103B30000020FEF700FDB620FEF7FAFC0020FEF79D
:103B4000FAFC0020FEF7F7FCB720FEF7F1FC00209E
:103B5000FEF7F1FC0020FEF7EEFC3F20FEF7EBFC49
:103B60000020FEF7E8FC5E20FEF7E5FC0020FEF7F3
:103B7000E2FC6420FEF7DFFC0020FEF7DCFC8C207A
:103B8000FEF7D9FC0020FEF7D6FCAC20FEF7D3FCF4
:103B90000020FEF7D0FCDC20FEF7CDFC0020FEF775
:103BA000CAFC7020FEF7C7FC0020FEF7C4FC902082
:103BB000FEF7C1FC0020FEF7BEFCEB20FEF7BBFCCD
:103BC0000020FEF7B8FCDC20FEF7B5FC0020FEF775
:103BD000B2FCB820FEF7ACFC0020FEF7ACFC0020E5
:103BE000FEF7A9FC0020FEF7A6FC0020FEF7A3FCD0
:103BF0000020FEF7A0FC0020FEF79DFC0020FEF751
:103C00009AFC0020FEF797FCBA20FEF791FC2420D6
:103C1000FEF791FC0020FEF78EFC0020FEF78BFCE7
:103C20000020FEF788FCC120FEF782FC2020FEF772
:103C300082FC0020FEF77FFC5420FEF77CFC002075
:103C4000FEF779FCFF20FEF776FC0020FEF773FC00
:103C5000C220FEF76DFC0A20FEF76DFC0020FEF787
:103C60006AFC0420FEF767FC0020FEF764FCC3201A
:103C7000FEF75EFC3C20FEF75EFC0020FEF75BFCDE
:103C80003A20FEF758FC0020FEF755FC3920FEF7DD
:103C900052FC0020FEF74FFC3720FEF74CFC0020C2
:103CA000FEF749FC3C20FEF746FC0020FEF743FCF3
:103CB0003620FEF740FC0020FEF73DFC3220FEF7E8
:103CC0003AFC0020FEF737FC2F20FEF734FC0020E2
:103CD000FEF731FC2C20FEF72EFC0020FEF72BFC1B
:103CE0002920FEF728FC0020FEF725FC2620FEF701
:103CF00022FC0020FEF71FFC2420FEF71CFC002005
:103D0000FEF719FC2420FEF716FC0020FEF713FC3A
:103D10002320FEF710FC0020FEF70DFC3C20FEF7F0
:103D20000AFC0020FEF707FC3620FEF704FC00200A
:103D3000FEF701FC3220FEF7FEFB0020FEF7FBFB46
:103D40002F20FEF7F8FB0020FEF7F5FB2C20FEF7F6
:103D5000F2FB0020FEF7EFFB2920FEF7ECFB002032
:103D6000FEF7E9FB2620FEF7E6FB0020FEF7E3FB6B
:103D70002420FEF7E0FB0020FEF7DDFB2420FEF709
:103D8000DAFB0020FEF7D7FB2320FEF7D4FB002050
:103D9000FEF7D1FBC420FEF7CBFB6220FEF7CBFB86
:103DA0000020FEF7C8FB0520FEF7C5FB0020FEF74C
:103DB000C2FB8420FEF7BFFB0020FEF7BCFBF02017
:103DC000FEF7B9FB0020FEF7B6FB1820FEF7B3FBA9
:103DD0000020FEF7B0FBA420FEF7ADFB0020FEF7AD
:103DE000AAFB1820FEF7A7FB0020FEF7A4FB50203B
:103DF000FEF7A1FB0020FEF79EFB0C20FEF79BFBCD
:103E00000020FEF798FB1720FEF795FB0020FEF739
:103E100092FB9520FEF78FFB0020FEF78CFBF32032
:103E2000FEF789FB0020FEF786FBE620FEF783FB0A
:103E30000020FEF780FBC520FEF77AFB3220FEF75C
:103E40007AFB0020FEF777FB4420FEF774FB00208E
:103E5000FEF771FB6520FEF76EFB0020FEF76BFBA3
:103E60007620FEF768FB0020FEF765FB8820FEF752
:103E700062FB0020FEF75FFBC620FEF759FB202007
:103E8000FEF759FB0020FEF756FB1720FEF753FB09
:103E90000020FEF750FB0120FEF74DFB0020FEF74F
:103EA0004AFBC720FEF744FB0020FEF744FB00203E
:103EB000FEF741FB0020FEF73EFB0020FEF73BFB38
:103EC000C820FEF735FB0020FEF735FB0020FEF78B
:103ED00032FB0020FEF72FFB0020FEF72CFBC92051
:103EE000FEF726FB0020FEF726FB0020FEF723FB53
:103EF0000020FEF720FB0020FEF71DFB0020FEF750
:103F00001AFB0020FEF717FB0020FEF714FB002031
:103F1000FEF711FB0020FEF70EFB0020FEF70BFB67
:103F20000020FEF708FB0020FEF705FB0020FEF74F
:103F300002FB0020FEF7FFFA0020FEF7FCFA00204B
:103F4000FEF7F9FAE020FEF7F3FA1620FEF7F3FA8F
:103F50000020FEF7F0FA1C20FEF7EDFA0020FEF735
:103F6000EAFA2120FEF7E7FA0020FEF7E4FA36200D
:103F7000FEF7E1FA0020FEF7DEFA4620FEF7DBFA54
:103F80000020FEF7D8FA5220FEF7D5FA0020FEF7FF
:103F9000D2FA6420FEF7CFFA0020FEF7CCFA7A209E
:103FA000FEF7C9FA0020FEF7C6FA8B20FEF7C3FA27
:103FB0000020FEF7C0FA9920FEF7BDFA0020FEF7B8
:103FC000BAFAA820FEF7B7FA0020FEF7B4FAB92033
:103FD000FEF7B1FA0020FEF7AEFAC420FEF7ABFA06
:103FE0000020FEF7A8FACA20FEF7A5FA0020FEF787
:103FF000A2FAD220FEF79FFA0020FEF79CFAD92001
:10400000FEF799FA0020FEF796FAE020FEF793FA01
:104010000020FEF790FAF320FEF78DFA0020FEF75D
:104020008AFAE120FEF784FA1620FEF784FA0020CF
:10403000FEF781FA1C20FEF77EFA0020FEF77BFADD
:104040002220FEF778FA0020FEF775FA3620FEF7F8
:1040500072FA0020FEF76FFA4520FEF76CFA002096
:10406000FEF769FA5220FEF766FA0020FEF763FABF
:104070006420FEF760FA0020FEF75DFA7A20FEF772
:104080005AFA0020FEF757FA8B20FEF754FA002068
:10409000FEF751FA9920FEF74EFA0020FEF74BFA90
:1040A000A820FEF748FA0020FEF745FAB920FEF7EF
:1040B00042FA0020FEF73FFAC420FEF73CFA002047
:1040C000FEF739FACA20FEF736FA0020FEF733FA77
:1040D000D220FEF730FA0020FEF72DFAD820FEF7A6
:1040E0002AFA0020FEF727FAE020FEF724FA002043
:1040F000FEF721FAF320FEF71EFA0020FEF71BFA66
:10410000E220FEF715FA0520FEF715FA0020FEF76B
:1041100012FA0B20FEF70FFA0020FEF70CFA1B2014
:10412000FEF709FA0020FEF706FA3420FEF703FA3C
:104130000020FEF700FA4420FEF7FDF90020FEF70C
:10414000FAF94F20FEF7F7F90020FEF7F4F96120A5
:10415000FEF7F1F90020FEF7EEF97920FEF7EBF912
:104160000020FEF7E8F98820FEF7E5F90020FEF7C9
:10417000E2F99720FEF7DFF90020FEF7DCF9A62030
:10418000FEF7D9F90020FEF7D6F9B720FEF7D3F9EC
:104190000020FEF7D0F9C220FEF7CDF90020FEF78F
:1041A000CAF9C720FEF7C7F90020FEF7C4F9D120ED
:1041B000FEF7C1F90020FEF7BEF9D620FEF7BBF9E5
:1041C0000020FEF7B8F9DD20FEF7B5F90020FEF774
:1041D000B2F9F320FEF7AFF90020FEF7ACF9E320C7
:1041E000FEF7A6F90520FEF7A6F90020FEF7A3F9D1
:1041F0000A20FEF7A0F90020FEF79DF91C20FEF72B
:104200009AF90020FEF797F93320FEF794F9002081
:10421000FEF791F94420FEF78EF90020FEF78BF9A6
:104220005020FEF788F90020FEF785F96220FEF79E
:1042300082F90020FEF77FF97820FEF77CF9002054
:10424000FEF779F98820FEF776F90020FEF773F97A
:104250009720FEF770F90020FEF76DF9A620FEF713
:104260006AF90020FEF767F9B720FEF764F900202D
:10427000FEF761F9C220FEF75EF90020FEF75BF958
:10428000C720FEF758F90020FEF755F9D120FEF7B8
:1042900052F90020FEF74FF9D520FEF74CF9002027
:1042A000FEF749F9DD20FEF746F90020FEF743F955
:1042B000F320FEF740F90020FEF73DF9E420FEF779
:1042C00037F90120FEF737F90020FEF734F9012015
:1042D000FEF731F90020FEF72EF90220FEF72BF948
:1042E0000020FEF728F92A20FEF725F90020FEF726
:1042F00022F93C20FEF71FF90020FEF71CF94B20A5
:10430000FEF719F90020FEF716F95D20FEF713F904
:104310000020FEF710F97420FEF70DF90020FEF7DB
:104320000AF98420FEF707F90020FEF704F993202C
:10433000FEF701F90020FEF7FEF8A220FEF7FBF8D9
:104340000020FEF7F8F8B320FEF7F5F80020FEF79E
:10435000F2F8BE20FEF7EFF80020FEF7ECF8C420DC
:10436000FEF7E9F80020FEF7E6F8CD20FEF7E3F8C7
:104370000020FEF7E0F8D320FEF7DDF80020FEF77E
:10438000DAF8DD20FEF7D7F80020FEF7D4F8F320A6
:10439000FEF7D1F80020FEF7CEF8E520FEF7C8F8CA
:1043A0000020FEF7C8F80020FEF7C5F80020FEF751
:1043B000C2F80020FEF7BFF80220FEF7BCF800208C
:1043C000FEF7B9F82920FEF7B6F80020FEF7B3F89B
:1043D0003C20FEF7B0F80020FEF7ADF84B20FEF7CA
:1043E000AAF80020FEF7A7F85D20FEF7A4F8002049
:1043F000FEF7A1F87420FEF79EF80020FEF79BF868
:104400008420FEF798F80020FEF795F89320FEF739
:1044100092F80020FEF78FF8A220FEF78CF800201B
:10442000FEF789F8B320FEF786F80020FEF783F840
:10443000BE20FEF780F80020FEF77DF8C420FEF7CE
:104440007AF80020FEF777F8CD20FEF774F8002008
:10445000FEF771F8D320FEF76EF80020FEF76BF838
:10446000DC20FEF768F80020FEF765F8F320FEF781
:1044700062F80020FEF75FF8E620FEF759F81120F9
:10448000FEF759F80020FEF756F83420FEF753F8EF
:104490000020FEF750F85620FEF74DF80020FEF7FA
:1044A0004AF87620FEF747F80020FEF744F8772018
:1044B000FEF741F80020FEF73EF86620FEF73BF8D5
:1044C0000020FEF738F88820FEF735F80020FEF7C8
:1044D00032F89920FEF72FF80020FEF72CF8BB20C9
:1044E000FEF729F80020FEF726F89920FEF723F8BA
:1044F0000020FEF720F86620FEF71DF80020FEF7EA
:104500001AF85520FEF717F80020FEF714F855208A
:10451000FEF711F80020FEF70EF84520FEF70BF825
:104520000020FEF708F84320FEF705F80020FEF70C
:1045300002F84420FDF7FFFF0020FDF7FCFFE72015
:10454000FDF7F6FF3220FDF7F6FF0020FDF7F3FF41
:104550005520FDF7F0FF0020FDF7EDFF7620FDF779
:10456000EAFF0020FDF7E7FF6620FDF7E4FF0020EB
:10457000FDF7E1FF6720FDF7DEFF0020FDF7DBFF21
:104580006720FDF7D8FF0020FDF7D5FF8720FDF756
:10459000D2FF0020FDF7CFFF9920FDF7CCFF0020D0
:1045A000FDF7C9FFBB20FDF7C6FF0020FDF7C3FFE5
:1045B0009920FDF7C0FF0020FDF7BDFF7720FDF734
:1045C000BAFF0020FDF7B7FF4420FDF7B4FF00203D
:1045D000FDF7B1FF5620FDF7AEFF0020FDF7ABFF62
:1045E0002320FDF7A8FF0020FDF7A5FF3320FDF7EE
:1045F000A2FF0020FDF79FFF4520FDF79CFF002054
:10460000FDF799FFE820FDF793FF0020FDF793FFEA
:104610000020FDF790FF9920FDF78DFF0020FDF7AA
:104620008AFF8720FDF787FF0020FDF784FF8820A1
:10463000FDF781FF0020FDF77EFF7720FDF77BFF70
:104640000020FDF778FF6620FDF775FF0020FDF7DD
:1046500072FF8820FDF76FFF0020FDF76CFFAA2096
:10466000FDF769FF0020FDF766FFBB20FDF763FF44
:104670000020FDF760FF9920FDF75DFF0020FDF7AA
:104680005AFF6620FDF757FF0020FDF754FF552025
:10469000FDF751FF0020FDF74EFF5520FDF74BFFC2
:1046A0000020FDF748FF4420FDF745FF0020FDF7FF
:1046B00042FF4420FDF73FFF0020FDF73CFF55205F
:1046C000FDF739FF0020FDF736FFE920FDF730FF49
:1046D000AA20FDF730FF0020FDF72DFF0020FDF799
:1046E0002AFF0020FDF727FF0020FDF721FFAA2069
:1046F000FDF721FFCF20FDF71BFF0020FDF71BFF7B
:104700000020FDF718FF0020FDF715FF0020FDF742
:1047100012FF0020FDF70FFF0020FDF70CFF002027
:10472000FDF709FF0020FDF706FF0020FDF703FF5E
:104730000020FDF700FF0020FDF7FDFE0020FDF743
:10474000FAFE0020FDF7F7FE0020FDF7F4FE002042
:10475000FDF7F1FE0020FDF7EEFE0020FDF7EBFE79
:10476000F020FDF7E5FE0020FDF7E5FE5020FDF707
:10477000E2FE0020FDF7DFFE0020FDF7DCFE00205A
:10478000FDF7D9FEF320FDF7D3FE0020FDF7D3FEA1
:10479000F920FDF7CDFE0620FDF7CDFE1020FDF738
:1047A000CAFE2920FDF7C7FE0020FDF7C4FE3A200F
:1047B000FDF7BEFE5520FDF7BEFE1120FDF7B8FE49
:1047C0006420FCF7EDFC2920FDF7B2FE3520FDF753
:1047D000AFFE0020FDF7AFFE5120FDF7A9FEFF2040
:1047E000FDF7A9FE5320FDF7A3FE2C20FDF7A3FE45
:1047F0005520FDF79DFE8220FDF79DFE2C20FDF744
:1048000097FE02F0E2B8FE488088A0F5AA41103970
:104810007ED155214FF47040FDF799FEAA214FF249
:104820000100FDF794FE52214FF20200FDF78FFECA
:1048300008214FF20300FDF78AFE01214FF2040028
:10484000FDF785FE0D214FF43040FDF780FE0D2170
:104850004BF20100FDF77BFE0D214BF20200FDF74C
:1048600076FE34214FF43640FDF771FE34214BF2D1
:104870000160FDF76CFE34214BF20260FDF767FE2C
:104880000D214FF43140FDF762FE0D214BF2011076
:10489000FDF75DFE0D214BF20210FDF758FE3421AD
:1048A0004FF43740FDF753FE34214BF20170FDF712
:1048B0004EFE34214BF20270FDF749FE00214FF409
:1048C0003240FDF744FE00214BF20120FDF73FFE90
:1048D00000214BF20220FDF73AFE24214FF438402C
:1048E000FDF735FE24214BF60100FDF730FE2421B3
:1048F0004BF60200FDF72BFE01214FF43F40FDF780
:1049000026FE0F214FF43340FDF721FE0F2100E07A
:10491000FEE34BF20130FDF71AFE0F214BF202309D
:10492000FDF715FE34214FF43940FDF710FE342118
:104930004BF60110FDF70BFE34214BF60210FDF78C
:1049400006FE08214FF43540FDF701FE08214BF229
:104950000150FDF7FCFD08214BF20250FDF7F7FD79
:1049600003214FF44240FDF7F2FD24214FF43A4079
:10497000FDF7EDFD24214BF60120FDF7E8FD242194
:104980004BF60220FDF7E3FD00214FF43C40FDF71C
:10499000DEFD78214BF60140FDF7D9FD00214BF6F5
:1049A0000240FDF7D4FD00214FF43D40FDF7CFFD5F
:1049B00078214BF60150FDF7CAFD00214BF602505D
:1049C000FDF7C5FD00214FF43E40FDF7C0FD642119
:1049D0004BF60160FDF7BBFD00214FF45140FDF7A0
:1049E000B6FD33214DF20110FDF7B1FD00214DF26E
:1049F0000210FDF7ACFD34214DF20310FDF7A7FDC9
:104A000000214DF20410FDF7A2FD3A214DF20510F0
:104A1000FDF79DFD00214DF20610FDF798FD4A219E
:104A20004DF20710FDF793FD00214DF20810FDF740
:104A30008EFD5C214DF20910FDF789FD00214DF23C
:104A40000A10FDF784FD81214DF20B10FDF77FFD6B
:104A500000214DF20C10FDF77AFDA6214DF20D104C
:104A6000FDF775FD00214DF20E10FDF770FDE521FB
:104A70004DF20F10FDF76BFD01214DF21010FDF707
:104A800066FD13214DF21110FDF761FD01214DF27C
:104A90001210FDF75CFD54214DF21310FDF757FD88
:104AA00001214DF21410FDF752FD82214DF2151037
:104AB000FDF74DFD01214DF21610FDF748FDCA210D
:104AC0004DF21710FDF743FD02214DF21810FDF7CE
:104AD0003EFD00214DF21910FDF739FD02214DF286
:104AE0001A10FDF734FD01214DF21B10FDF72FFDCB
:104AF00002214DF21C10FDF72AFD34214DF21D104C
:104B0000FDF725FD02214DF21E10FDF720FD672166
:104B10004DF21F10FDF71BFD02214DF22010FDF795
:104B200016FD84214DF22110FDF711FD02214DF2F9
:104B30002210FDF70CFDA4214DF22310FDF707FD17
:104B400002214DF22410FDF702FDB7214DF2251090
:104B5000FDF7FDFC02214DF22610FDF7F8FCCF21F8
:104B60004DF22710FDF7F3FC02214DF22810FDF75E
:104B7000EEFCDE214DF22910FDF7E9FC02214DF299
:104B80002A10FDF7E4FCF2214DF22B10FDF7DFFCBB
:104B900002214DF22C10FDF7DAFCFE214DF22D1012
:104BA000FDF7D5FC03214DF22E10FDF7D0FC1021AE
:104BB0004DF22F10FDF7CBFC03214DF23010FDF725
:104BC000C6FC33214DF23110FDF7C1FC03214DF23B
:104BD0003210FDF7BCFC6D214DF23310FDF7B7FC30
:104BE00000214FF45240FDF7B2FC33214DF2012079
:104BF000FDF7ADFC00214DF20220FDF7A8FC01E01D
:104C0000CC03002034214DF20320FDF7A0FC00214D
:104C10004DF20420FDF79BFC3A214DF20520FDF7F3
:104C200096FC00214DF20620FDF791FC4A214DF241
:104C30000720FDF78CFC00214DF20820FDF787FCD2
:104C40005C214DF20920FDF782FC00214DF20A2083
:104C5000FDF77DFC81214DF20B20FDF778FC002152
:104C60004DF20C20FDF773FCA6214DF20D20FDF74F
:104C70006EFC00214DF20E20FDF769FCE5214DF29E
:104C80000F20FDF764FC01214DF21020FDF75FFCC1
:104C900013214DF21120FDF75AFC01214DF2122093
:104CA000FDF755FC54214DF21320FDF750FC012176
:104CB0004DF21420FDF74BFC82214DF21520FDF73B
:104CC00046FC01214DF21620FDF741FCCA214DF2B0
:104CD0001720FDF73CFC02214DF21820FDF737FCB0
:104CE00000214DF21920FDF732FC02214DF21A206D
:104CF000FDF72DFC01214DF21B20FDF728FC0221C0
:104D00004DF21C20FDF723FC34214DF21D20FDF750
:104D10001EFC02214DF21E20FDF719FC67214DF209
:104D20001F20FDF714FC02214DF22020FDF70FFC9F
:104D300084214DF22120FDF70AFC02214DF22220B0
:104D4000FDF705FCA4214DF22320FDF700FC022114
:104D50004DF22420FDF7FBFBB7214DF22520FDF796
:104D6000F6FB02214DF22620FDF7F1FBCF214DF29B
:104D70002720FDF7ECFB02214DF22820FDF7E7FB91
:104D8000DE214DF22920FDF7E2FB02214DF22A201F
:104D9000FDF7DDFBF2214DF22B20FDF7D8FB0221C0
:104DA0004DF22C20FDF7D3FBFE214DF22D20FDF717
:104DB000CEFB03214DF22E20FDF7C9FB10214DF251
:104DC0002F20FDF7C4FB03214DF23020FDF7BFFB80
:104DD00033214DF23120FDF7BAFB03214DF2322091
:104DE000FDF7B5FB6D214DF23320FDF7B0FB00213F
:104DF0004FF45340FDF7ABFB33214DF20130FDF78B
:104E0000A6FB00214DF20230FDF7A1FB34214DF24B
:104E10000330FDF79CFB00214DF20430FDF797FBBA
:104E20003A214DF20530FDF792FB00214DF206309C
:104E3000FDF78DFB4A214DF20730FDF788FB00217D
:104E40004DF20830FDF783FB5C214DF20930FDF790
:104E50007EFB00214DF20A30FDF779FB81214DF2F6
:104E60000B30FDF774FB00214DF20C30FDF76FFBAA
:104E7000A6214DF20D30FDF76AFB00214DF20E30F8
:104E8000FDF765FBE5214DF20F30FDF760FB0121D9
:104E90004DF21030FDF75BFB13214DF21130FDF7A1
:104EA00056FB01214DF21230FDF751FB54214DF21A
:104EB0001330FDF74CFB01214DF21430FDF747FB99
:104EC00082214DF21530FDF742FB01214DF21630E3
:104ED000FDF73DFBCA214DF21730FDF738FB0221EB
:104EE0004DF21830FDF733FB00214DF21930FDF77C
:104EF0002EFB02214DF21A30FDF729FB01214DF264
:104F00001B30FDF724FB02214DF21C30FDF71FFB87
:104F100034214DF21D30FDF71AFB02214DF21E30F7
:104F2000FDF715FB67214DF21F30FDF710FB022145
:104F30004DF22030FDF70BFB84214DF22130FDF7BF
:104F400006FB02214DF22230FDF701FBA4214DF2B8
:104F50002330FDF7FCFA02214DF22430FDF7F7FA79
:104F6000B7214DF22530FDF7F2FA02214DF226303D
:104F7000FDF7EDFACF214DF22730FDF7E8FA0221D7
:104F80004DF22830FDF7E3FADE214DF22930FDF72E
:104F9000DEFA02214DF22A30FDF7D9FAF2214DF264
:104FA0002B30FDF7D4FA02214DF22C30FDF7CFFA69
:104FB000FE214DF22D30FDF7CAFA03214DF22E30BD
:104FC000FDF7C5FA10214DF22F30FDF7C0FA03218D
:104FD0004DF23030FDF7BBFA33214DF23130FDF7A1
:104FE000B6FA03214DF23230FDF7B1FA6D214DF2E0
:104FF0003330FDF7ACFA00214FF45440FDF7A7FA27
:1050000033214DF20140FDF7A2FA00214DF202409A
:10501000FDF79DFA34214DF20340FDF798FA002187
:105020004DF20440FDF793FA3A214DF20540FDF7A9
:105030008EFA00214DF20640FDF789FA4A214DF221
:105040000740FDF784FA00214DF20840FDF77FFA92
:105050005C214DF20940FDF77AFA00214DF20A4039
:10506000FDF775FA81214DF20B40FDF770FA002132
:105070004DF20C40FDF76BFAA6214DF20D40FDF705
:1050800066FA00214DF20E40FDF761FAE5214DF27E
:105090000F40FDF75CFA01214DF21040FDF757FA81
:1050A00013214DF21140FDF752FA01214DF2124049
:1050B000FDF74DFA54214DF21340FDF748FA012156
:1050C0004DF21440FDF743FA82214DF21540FDF7F1
:1050D0003EFA01214DF21640FDF739FACA214DF290
:1050E0001740FDF734FA02214DF21840FDF72FFA70
:1050F00000214DF21940FDF72AFA02214DF21A4023
:10510000FDF725FA01214DF21B40FDF720FA00E0E2
:1051100004E302214DF21C40FDF719FA34214DF24F
:105120001D40FDF714FA02214DF21E40FDF70FFA63
:1051300067214DF21F40FDF70AFA02214DF220408F
:10514000FDF705FA84214DF22140FDF700FA022116
:105150004DF22240FDF7FBF9A4214DF22340FDF76B
:10516000F6F902214DF22440FDF7F1F9B7214DF295
:105170002540FDF7ECF902214DF22640FDF7E7F955
:10518000CF214DF22740FDF7E2F902214DF22840F0
:10519000FDF7DDF9DE214DF22940FDF7D8F90221B6
:1051A0004DF22A40FDF7D3F9F2214DF22B40FDF7E5
:1051B000CEF902214DF22C40FDF7C9F9FE214DF246
:1051C0002D40FDF7C4F903214DF22E40FDF7BFF944
:1051D00010214DF22F40FDF7BAF903214DF2304076
:1051E000FDF7B5F933214DF23140FDF7B0F9032158
:1051F0004DF23240FDF7ABF96D214DF23340FDF732
:10520000A6F900214FF45540FDF7A1F933214DF2E5
:105210000150FDF79CF900214DF20250FDF797F97E
:1052200034214DF20350FDF792F900214DF2045064
:10523000FDF78DF93A214DF20550FDF788F900216F
:105240004DF20650FDF783F94A214DF20750FDF764
:105250007EF900214DF20850FDF779F95C214DF2FD
:105260000950FDF774F900214DF20A50FDF76FF96E
:1052700081214DF20B50FDF76AF900214DF20C50DF
:10528000FDF765F9A6214DF20D50FDF760F90021FB
:105290004DF20E50FDF75BF9E5214DF20F50FDF791
:1052A00056F901214DF21050FDF751F913214DF23D
:1052B0001150FDF74CF901214DF21250FDF747F95D
:1052C00054214DF21350FDF742F901214DF21450D3
:1052D000FDF73DF982214DF21550FDF738F9012116
:1052E0004DF21650FDF733F9CA214DF21750FDF774
:1052F0002EF902214DF21850FDF729F900214DF247
:105300001950FDF724F902214DF21A50FDF71FF94B
:1053100001214DF21B50FDF71AF902214DF21C50EC
:10532000FDF715F934214DF21D50FDF710F902215A
:105330004DF21E50FDF70BF967214DF21F50FDF79E
:1053400006F902214DF22050FDF701F984214DF2BA
:105350002150FDF7FCF802214DF22250FDF7F7F83D
:10536000A4214DF22350FDF7F2F802214DF2245012
:10537000FDF7EDF8B7214DF22550FDF7E8F80221D1
:105380004DF22650FDF7E3F8CF214DF22750FDF7FF
:10539000DEF802214DF22850FDF7D9F8DE214DF25A
:1053A0002950FDF7D4F802214DF22A50FDF7CFF82D
:1053B000F2214DF22B50FDF7CAF802214DF22C508C
:1053C000FDF7C5F8FE214DF22D50FDF7C0F8032181
:1053D0004DF22E50FDF7BBF810214DF22F50FDF786
:1053E000B6F803214DF23050FDF7B1F833214DF2FC
:1053F0003150FDF7ACF803214DF23250FDF7A7F81C
:105400006D214DF23350FDF7A2F800214FF45640C4
:10541000FDF79DF833214DF20160FDF798F800216A
:105420004DF20260FDF793F834214DF20360FDF771
:105430008EF800214DF20460FDF789F83A214DF213
:105440000560FDF784F800214DF20660FDF77FF856
:105450004A214DF20760FDF77AF800214DF208600D
:10546000FDF775F85C214DF20960FDF770F8002139
:105470004DF20A60FDF76BF881214DF20B60FDF7EC
:1054800066F800214DF20C60FDF761F8A6214DF29F
:105490000D60FDF75CF800214DF20E60FDF757F846
:1054A000E5214DF20F60FDF752F801214DF2106039
:1054B000FDF74DF813214DF21160FDF748F8012179
:1054C0004DF21260FDF743F854214DF21360FDF7E1
:1054D0003EF801214DF21460FDF739F882214DF2BA
:1054E0001560FDF734F801214DF21660FDF72FF835
:1054F000CA214DF21760FDF72AF802214DF218601B
:10550000FDF725F800214DF21960FDF720F8022182
:105510004DF21A60FDF71BF801214DF21B60FDF7FB
:1055200016F802214DF21C60FDF711F834214DF2FE
:105530001D60FDF70CF802214DF21E60FDF707F823
:1055400067214DF21F60FDF702F802214DF2206045
:10555000FCF7FDFF84214DF22160FCF7F8FF0221EA
:105560004DF22260FCF7F3FFA4214DF22360FCF71B
:10557000EEFF02214DF22460FCF7E9FFB7214DF266
:105580002560FCF7E4FF02214DF22660FCF7DFFF07
:10559000CF214DF22760FCF7DAFF02214DF228609F
:1055A000FCF7D5FFDE214DF22960FCF7D0FF022188
:1055B0004DF22A60FCF7CBFFF2214DF22B60FCF795
:1055C000C6FF02214DF22C60FCF7C1FFFE214DF217
:1055D0002D60FCF7BCFF03214DF22E60FCF7B7FFF6
:1055E00010214DF22F60FCF7B2FF03214DF2306025
:1055F000FCF7ADFF33214DF23160FCF7A8FF03212A
:105600004DF23260FCF7A3FF6D214DF23360FCF7E1
:105610009EFF55214FF47040FCF799FFAA214FF2ED
:105620000100FCF794FF52214FF20200FCF78FFFBC
:1056300008214FF20300FCF78AFF00214FF204001B
:10564000FCF785FFCC214FF43140FCF780FF0021AF
:105650004BF20110FCF77BFF05214FF43640FCF7BD
:1056600076FF70214FF43740FCF771FF70214BF249
:105670000170FCF76CFF01214FF43840FCF767FF25
:1056800003214BF60100FCF762FF03214BF60200F9
:10569000FCF75DFF03214BF60300FCF758FF0221E6
:1056A0004FF43C40FCF753FF00214BF60140FCF760
:1056B0004EFF00214BF60240FCF749FFD0214FF48A
:1056C0004940FCF744FF02214CF60110FCF73FFF74
:1056D00050214CF60210FCF73AFF50214CF6031013
:1056E000FCF735FF50214CF60410FCF730FF002189
:1056F0004FF45450FCF72BFF55214FF46850FCF742
:1057000026FF4FF48850FCF713FF7820FBF725FDA8
:105710004FF42450FCF70CFF01F057B9FE48808885
:10572000A0F5134125397DD147F6F001E520FCF7BE
:105730000EFF4FF480710120FCF709FF4FF4E06188
:105740000220FCF704FF41F230010320FCF7FFFECA
:1057500000210420FCF7FBFE40F202210820FCF7A8
:10576000F6FE00210920FCF7F2FE00210A20FCF7DA
:10577000EEFE00210C20FCF7EAFE00210D20FCF7D4
:10578000E6FE00210F20FCF7E2FE00211020FCF7CE
:10579000DEFE07211120FCF7DAFE00211220FCF7C3
:1057A000D6FE00211320FCF7D2FE00210720FCF7D3
:1057B000CEFE41F290611020FCF7C9FE40F2272195
:1057C0001120FCF7C4FE9D211220FCF7C0FE4FF40F
:1057D000C8511320FCF7BBFE25212920FCF7B7FE9A
:1057E0000D212B20FCF7B3FE07213020FCF7AFFE84
:1057F00040F203313120FCF7AAFE03213220FCF7EE
:10580000A6FE40F206213520FCF7A1FE0821362035
:10581000FCF79DFE40F206413720FCF798FE4FF45E
:10582000417100E058E03820FCF791FE0721392053
:10583000FCF78DFE40F202613C20FCF788FE082157
:105840003D20FCF784FE00215020FCF780FEEF2174
:105850005120FCF77CFE00215220FCF778FE40F23C
:105860003F115320FCF773FE4FF427416020FCF7F3
:105870006EFE01216120FCF76AFE00216A20FCF720
:1058800066FE00218020FCF762FE00218120FCF7EB
:105890005EFE00218220FCF75AFE00218320FCF7E7
:1058A00056FE00218420FCF752FE00218520FCF7E3
:1058B0004EFE10219020FCF74AFE4FF4C06192206A
:1058C000FCF745FE40F233110720FCF740FE222191
:1058D0000020FCF73CFE1FE78F488088A0F51341AD
:1058E00028397DD141F28F01EC20FCF730FE41F2E6
:1058F0003421EF20FCF72BFE4FF480710120FCF7E0
:1059000026FE4FF4E0610220FCF721FE41F2300157
:105910000320FCF71CFE00210420FCF718FE40F2D7
:1059200002210820FCF713FE00210920FCF70FFEDE
:1059300000210A20FCF70BFE01210C20FCF707FEDA
:1059400000210D20FCF703FE00210F20FCF7FFFDD6
:1059500000211020FCF7FBFD07211120FCF7F7FDCB
:1059600000211220FCF7F3FD00211320FCF7EFFDCE
:1059700001210720FCF7EBFD3220FBF711FC41F27F
:1059800090411020FCF7E3FD40F227211120FCF7A5
:10599000DEFD3220FBF704FC8A211220FCF7D7FD44
:1059A0003220FBF7FDFB4FF4D0511320FCF7CFFD65
:1059B00006212920FCF7CBFD0D212B20FCF7C7FD8C
:1059C0003220FBF7EDFB00212020FCF7C0FD002179
:1059D0002120FCF7BCFD3220FBF7E2FB002100E0B8
:1059E00075E03020FCF7B3FD40F204613120FCF794
:1059F000AEFD40F205313220FCF7A9FD0021352033
:105A0000FCF7A5FD40F609413620FCF7A0FD4FF458
:105A100001713720FCF79BFD40F201313820FCF783
:105A200096FD40F207713920FCF791FD00213C20E2
:105A3000FCF78DFD40F60A213D20FCF788FD322061
:105A4000FBF7AEFB00215020FCF781FDEF21512038
:105A5000FCF77DFD00215220FCF779FD40F23F115B
:105A60005320FCF774FD4FF427416020FCF76FFDD5
:105A700001216120FCF76BFD00216A20FCF767FD26
:105A800000218020FCF763FD00218120FCF75FFDF1
:105A900000218220FCF75BFD00218320FCF757FDED
:105AA00000218420FCF753FD00218520FCF74FFDE9
:105AB00010219020FCF74BFD4FF4C0619220FCF7C1
:105AC00046FD40F233110720FCF741FD24E6124861
:105AD0008088A0F5134120397ED10846FCF737FDB8
